{
  "contractName": "Funder",
  "abi": [
    {
      "inputs": [],
      "stateMutability": "nonpayable",
      "type": "constructor"
    },
    {
      "inputs": [],
      "name": "manager",
      "outputs": [
        {
          "internalType": "address",
          "name": "",
          "type": "address"
        }
      ],
      "stateMutability": "view",
      "type": "function"
    },
    {
      "inputs": [
        {
          "internalType": "uint256",
          "name": "",
          "type": "uint256"
        }
      ],
      "name": "participants",
      "outputs": [
        {
          "internalType": "address payable",
          "name": "",
          "type": "address"
        }
      ],
      "stateMutability": "view",
      "type": "function"
    },
    {
      "stateMutability": "payable",
      "type": "receive"
    },
    {
      "inputs": [],
      "name": "Transfer",
      "outputs": [],
      "stateMutability": "payable",
      "type": "function"
    },
    {
      "inputs": [],
      "name": "random",
      "outputs": [
        {
          "internalType": "uint256",
          "name": "",
          "type": "uint256"
        }
      ],
      "stateMutability": "view",
      "type": "function"
    },
    {
      "inputs": [],
      "name": "Withdraw",
      "outputs": [],
      "stateMutability": "nonpayable",
      "type": "function"
    },
    {
      "inputs": [],
      "name": "getBalance",
      "outputs": [
        {
          "internalType": "uint256",
          "name": "",
          "type": "uint256"
        }
      ],
      "stateMutability": "view",
      "type": "function"
    },
    {
      "inputs": [],
      "name": "Length",
      "outputs": [
        {
          "internalType": "uint256",
          "name": "",
          "type": "uint256"
        }
      ],
      "stateMutability": "view",
      "type": "function"
    }
  ],
  "bytecode": "0x608060405234801561001057600080fd5b5033600160006101000a81548173ffffffffffffffffffffffffffffffffffffffff021916908373ffffffffffffffffffffffffffffffffffffffff160217905550610748806100616000396000f3fe6080604052600436106100745760003560e01c8063481c6a751161004e578063481c6a75146100f257806357ea89b61461011d5780635ec01e4d14610134578063821728821461015f5761007b565b806312065fe01461008057806335c1d349146100ab578063406dade3146100e85761007b565b3661007b57005b600080fd5b34801561008c57600080fd5b5061009561018a565b6040516100a291906104e5565b60405180910390f35b3480156100b757600080fd5b506100d260048036038101906100cd9190610531565b610192565b6040516100df919061059f565b60405180910390f35b6100f06101d1565b005b3480156100fe57600080fd5b50610107610236565b60405161011491906105db565b60405180910390f35b34801561012957600080fd5b5061013261025c565b005b34801561014057600080fd5b506101496103df565b60405161015691906104e5565b60405180910390f35b34801561016b57600080fd5b50610174610419565b60405161018191906104e5565b60405180910390f35b600047905090565b600081815481106101a257600080fd5b906000526020600020016000915054906101000a900473ffffffffffffffffffffffffffffffffffffffff1681565b6000339080600181540180825580915050600190039060005260206000200160009091909190916101000a81548173ffffffffffffffffffffffffffffffffffffffff021916908373ffffffffffffffffffffffffffffffffffffffff160217905550565b600160009054906101000a900473ffffffffffffffffffffffffffffffffffffffff1681565b600160009054906101000a900473ffffffffffffffffffffffffffffffffffffffff1673ffffffffffffffffffffffffffffffffffffffff163373ffffffffffffffffffffffffffffffffffffffff16146102b657600080fd5b600360008054905010156102c957600080fd5b60006102d36103df565b9050600080600080549050836102e99190610625565b9050600081815481106102ff576102fe610656565b5b9060005260206000200160009054906101000a900473ffffffffffffffffffffffffffffffffffffffff1691508173ffffffffffffffffffffffffffffffffffffffff166108fc61034e61018a565b9081150290604051600060405180830381858888f19350505050158015610379573d6000803e3d6000fd5b50600067ffffffffffffffff81111561039557610394610685565b5b6040519080825280602002602001820160405280156103c35781602001602082028036833780820191505090505b50600090805190602001906103d9929190610425565b50505050565b600044426000805490506040516020016103fb939291906106d5565b6040516020818303038152906040528051906020012060001c905090565b60008080549050905090565b82805482825590600052602060002090810192821561049e579160200282015b8281111561049d5782518260006101000a81548173ffffffffffffffffffffffffffffffffffffffff021916908373ffffffffffffffffffffffffffffffffffffffff16021790555091602001919060010190610445565b5b5090506104ab91906104af565b5090565b5b808211156104c85760008160009055506001016104b0565b5090565b6000819050919050565b6104df816104cc565b82525050565b60006020820190506104fa60008301846104d6565b92915050565b600080fd5b61050e816104cc565b811461051957600080fd5b50565b60008135905061052b81610505565b92915050565b60006020828403121561054757610546610500565b5b60006105558482850161051c565b91505092915050565b600073ffffffffffffffffffffffffffffffffffffffff82169050919050565b60006105898261055e565b9050919050565b6105998161057e565b82525050565b60006020820190506105b46000830184610590565b92915050565b60006105c58261055e565b9050919050565b6105d5816105ba565b82525050565b60006020820190506105f060008301846105cc565b92915050565b7f4e487b7100000000000000000000000000000000000000000000000000000000600052601260045260246000fd5b6000610630826104cc565b915061063b836104cc565b92508261064b5761064a6105f6565b5b828206905092915050565b7f4e487b7100000000000000000000000000000000000000000000000000000000600052603260045260246000fd5b7f4e487b7100000000000000000000000000000000000000000000000000000000600052604160045260246000fd5b6000819050919050565b6106cf6106ca826104cc565b6106b4565b82525050565b60006106e182866106be565b6020820191506106f182856106be565b60208201915061070182846106be565b60208201915081905094935050505056fea26469706673582212201bc75645497edfea4a24715c75f25068120288922f9caade563a43807c5fdad064736f6c634300080d0033",
  "immutableReferences": {},
  "source": "// SPDX-License-Identifier: MIT\r\npragma solidity >=0.4.22 <0.9.0;\r\n\r\ncontract Funder{\r\n    address payable[] public participants;\r\n    address public manager;\r\n\r\n    constructor(){\r\n        manager = msg.sender;\r\n    }\r\n    receive() external payable{}\r\n\r\n    function Transfer() external payable{\r\n        participants.push(payable(msg.sender));\r\n    }\r\n    function random() public view returns(uint){\r\n       return uint( keccak256(abi.encodePacked(block.difficulty, block.timestamp, participants.length)));\r\n    }\r\n    function Withdraw() external{\r\n        require(msg.sender == manager);\r\n        require(participants.length >= 3);\r\n        uint r = random();\r\n        address payable winner;\r\n        uint index = r%participants.length;\r\n        winner = participants[index];\r\n        winner.transfer(getBalance());\r\n        participants = new address payable[](0);\r\n        // payable(msg.sender).transfer(WithdrawAmount);\r\n        \r\n    }\r\n\r\n    function getBalance() public view returns(uint){\r\n        return address(this).balance;\r\n    }\r\n    function Length() external view returns(uint){\r\n        return participants.length;\r\n    }\r\n}",
  "sourcePath": "F:\\daap 2\\truffle\\contracts\\Lottery.sol",
  "compiler": {
    "name": "solc",
    "version": "0.8.13+commit.abaa5c0e.Emscripten.clang"
  },
  "schemaVersion": "3.4.7",
  "updatedAt": "2022-05-12T08:36:35.776Z",
  "devdoc": {
    "kind": "dev",
    "methods": {},
    "version": 1
  },
  "userdoc": {
    "kind": "user",
    "methods": {},
    "version": 1
  }
}